:020000040800F2
:10000000881F00209D010008BD430008673A0008D2
:10001000B9430008CD0E0008794C0008000000002C
:10002000000000000000000000000000D9460008A9
:1000300045100008000000008D450008C147000879
:10004000B7010008B7010008B7010008B7010008B0
:10005000B7010008B7010008B7010008B7010008A0
:10006000B7010008B7010008B7010008091000082F
:10007000B7010008B7010008B7010008B701000880
:10008000B7010008B7010008B7010008B701000870
:10009000B7010008B7010008B7010008B701000860
:1000A000B7010008B7010008B7010008B701000850
:1000B00055480008B7010008B7010008B70100085B
:1000C000B7010008B7010008B7010008B701000830
:1000D000B7010008B7010008B7010008B701000820
:1000E000B7010008B7010008B7010008DFF810D019
:1000F00000F098FB0048004749570008AFF3008024
:10010000881F0020224B19680868B0E8F00F80F3C0
:100110000988BFF36F8F4FF0000080F311884EF015
:100120000D0E70470000000006480068006880F36C
:10013000088862B661B6BFF34F8FBFF36F8F00DFE1
:1001400000BF00BF08ED00E0EFF30980BFF36F8F41
:100150000F4B1A6820E9F00F106008B54FF05000FF
:1001600080F31188BFF34F8FBFF36F8F06F020F835
:100170004FF0000080F31188BDE808401968086856
:10018000B0E8F00F80F30988BFF36F8F704700BFAE
:1001900030000020EFF305807047000006488047DC
:1001A00006480047FEE7FEE7FEE7FEE7FEE7FEE75C
:1001B000FEE7FEE7FEE7FEE751480008ED00000815
:1001C000D2B201E000F8012B491EFBD27047002299
:1001D000F6E710B513460A4604461946FFF7F0FF46
:1001E000204610BDF0B480EA0102D40F4200B2EB09
:1001F000410F02D20246084611464A0042D0C30DC2
:10020000DDB2C1F3C752AD1A202D35DAC1F31601A4
:1002100041F4000204B15242C5F1200602FA06F18F
:100220002A411044B3EBD05F23D0C4B1012DA0EB21
:10023000C35009DCF0BC4FF0004202EAC352DBB20B
:1002400000F5000000F008B9400000F1807000EBFC
:10025000C350A0F1807040EAD170490009E049081C
:1002600041EAC071A0EBC35000F50000400800EB6C
:10027000C350F0BC00F0E7B86142012202EB41013B
:10028000001BF6E7F0BC704781F00041AAE780F060
:100290000040A7E780EA010210B502F000434000E9
:1002A00022D04A001FD0010E01EB1261C0F35600AC
:1002B000C2F3560240F4000042F40002A0FB022008
:1002C00000047F39140400D0401C50EA124001D4CD
:1002D0004000491EC2B20C0604EBD010401C40087E
:1002E000802A02D003E0002010BD20F00100002988
:1002F00000DA0020184310BD30B480EA010202F099
:10030000004530F0004221F0004013D090B1C30D01
:10031000D40DC2F31601C0F31600E41A41F4000133
:1003200040F400027D34914201D3641C00E0490096
:10033000002C02DA30BC002070474FF4000000238C
:10034000914201D3891A034340084FEA4101F7D192
:1003500051B1914202D14FF0004105E002D24FF07D
:10036000010101E06FF0010103EBC450284430BCEF
:1003700000F069B896230022114600F06DB800F035
:10038000004230F000400AD0C10D01F56071C0F3A9
:10039000160042EA0151C20840071143704700208D
:1003A00001467047002801DBC0F10040002901DB55
:1003B000C1F100418842704730B50B46014600202C
:1003C0002022012409E021FA02F59D4205D303FA17
:1003D00002F5491B04FA02F52844151EA2F1010298
:1003E000F1DC30BD2DE9F05F0546002092469B46CA
:1003F00088460646814640241BE02846414647463B
:10040000224600F030FA53465A46C01A914110D3A2
:1004100011461846224600F017FA2D1A67EB01081C
:100420004F4622460120002100F00EFA17EB00098A
:100430004E41201EA4F10104DFDC484631462A4625
:100440004346BDE8F09F0029A8BF7047401C490003
:1004500008BF20F00100704710B4B0FA80FC00FA29
:100460000CF050EA010404BF10BC704749B1CCF154
:10047000200421FA04F411FA0CF118BF01212143E0
:100480000843A3EB0C01CB1D4FEA00614FEA10209B
:1004900042BF002010BC704700EBC350104400293D
:1004A000A4BF10BC7047401C490008BF20F00100E9
:1004B00010BC70472DE9FE4F804681EA0300C00F53
:1004C0000C46009021F0004123F00045B8EB0200FB
:1004D000A94105D24046214690461C460B4602469D
:1004E00023F00040104347D0270DC7F30A00C3F3A1
:1004F0000A510290401A019040286BDAC3F31300AE
:1005000040F4801B0098924620B10023D2EB030AEE
:1005100063EB0B0B01985946C0F14002504600F0C6
:1005200093F906460D4650465946019A00F0ABF93C
:1005300010EB08006141002487EA115284EAE77356
:100540001A4340D0009A62B3019A012A4FEA075237
:1005500015DC001B61EB02014FF0004202EA07527A
:10056000CDE90042001C41F5801132462B4600F0D7
:10057000ABF903B0BDE8F08F40462146F9E7001B18
:1005800061EB0201001C41F5801300185B4120184B
:10059000A2F5001747EB030140EAD570B6196D418B
:1005A00011E06D084FEA360645EAC0754FEA07527A
:1005B000001B61EB0201001C41F5801149084FEA64
:1005C00030000019514132462B4603B0BDE8F04FD0
:1005D00000F06BB90098012240000023D0EB02022A
:1005E00063EBE073009821464FEAE074B8EB00003B
:1005F00061EB0401E9E783F000435BE781F0004130
:1006000058E72DE9FE4F81EA030404F0004421F08D
:10061000004100944FF0000B23F0004350EA010426
:100620005ED052EA03045BD0C3F30A54C1F30A5507
:100630002C44A4F2F3340194A0FB0254C1F313013F
:1006400041F48011C3F3130343F4801301FB02440C
:1006500000FB034E840A970A44EA815447EA835711
:10066000A4FB076802958D0A05FB07854FEA932CCA
:1006700004FB0C542705029D4FEA065847EA16373B
:10068000B5EB08056EEB070C870E920E47EA811753
:1006900042EA8312A7FB0201B6EB0B0164EB0004F4
:1006A0002B0D43EA0C335E1844EB1C50DA465146DE
:1006B000E7FB0201C5F313044FEA0B3343EA14537B
:1006C0004FEA0432019C43EA0603A4F10C040294AD
:1006D000009CCDE900B400F0F7F803B0BDE8F08F5E
:1006E00000200146F9E72DE9F04D81EA030404F00A
:1006F000004B21F0004514464FF0000A23F0004162
:1007000050EA050220D054EA01021DD0C5F30A5771
:100710000246C5F31303C1F31300C1F30A5640F4B4
:10072000801543F48013A7EB0608101BD64608F289
:10073000FD3873EB050002D308F1010801E09218BF
:100740005B41B8F1000F03DA00200146BDE8F08DEF
:1007500000204FF48011064684460EE0171B73EB11
:10076000050705D3121B63EB050306434CEA010C96
:1007700049084FEA300092185B4150EA0107EDD179
:1007800052EA030012D082EA040083EA050108431A
:1007900005D0101BAB4106D20122002306E0002247
:1007A0004FF0004302E06FF0010253101AEB060015
:1007B0004CEB085110EB0A0041EB0B01BDE8F04D8A
:1007C00000F073B8C1F30A52C1F3130140F2FF33D2
:1007D00041F480119A4202DA00200146704740F24B
:1007E00033439A42A2F2334202DC524200F03BB859
:1007F00000F02AB830B5041E71F1000404DB4FF09C
:100800000044404264EB0101141E73F1000405DB57
:100810001C464FF00043524263EB0403994208BF69
:10082000904230BD064C074D06E0E06840F0010301
:1008300094E8070098471034AC42F6D3FFF75AFC0F
:10084000F068000810690008202A04DB203A00FA4A
:1008500002F1002070479140C2F1200320FA03F317
:10086000194390407047202A04DB203A21FA02F015
:100870000021704721FA02F3D040C2F120029140DA
:10088000084319467047202A06DBCB17203A41FA65
:1008900002F043EAE07306E041FA02F3D040C2F10D
:1008A0002002914008431946704710B5141E73F199
:1008B000000408DA401C41F1000192185B411A4320
:1008C00001D120F0010010BD2DE9F04D92469B466C
:1008D00011B1B1FA81F202E0B0FA80F22032904612
:1008E000FFF7B2FF04460F4640EA0A0041EA0B0157
:1008F00053465A46084313D0114653EA010019D013
:10090000C8F140025046FFF7AEFF05460E4650467E
:1009100059464246FFF798FF084305D0012004E0FE
:1009200020463946BDE8F08D0020054346EAE076D2
:100930002C4337430A986305E40AA0EB0800002221
:10094000FD0A44EA47540A3002D500200146E9E78F
:10095000010510196941DDE9084500196941BDE843
:10096000F04DA2E770B5044600252068806800F0CD
:10097000010018B32068806820F0010021688860B9
:1009800001F064F9054613E001F060F9401B02280C
:100990000ED92068806800F0010048B1A06A40F0DC
:1009A0001000A062E06A40F00100E062012070BD2A
:1009B0002068806800F001000028E5D10020F6E7FB
:1009C00070B505466C6AA06A00F05000E0B9A06AF4
:1009D00040F40070A0622068806800F46020B0F5E8
:1009E000602F0DD1207B58B9A06A20F48070A062DE
:1009F000A06A00F4805018B9A06A40F00100A0621B
:100A0000204600F061FC03E0206A016B284688471D
:100A100070BD70B505466C6AA06A40F04000A062E7
:100A2000E06A40F00400E062204600F05AFC70BD2D
:100A300070B50446656A284600F052FC70BD00009F
:100A400038B504460025002000902068806800F03A
:100A5000010078BB2068806840F001002168886050
:100A6000194800681949B0FBF1F0009002E00098C5
:100A7000401E009000980028F9D101F0E7F80546E3
:100A800019E001F0E3F8401B022814D920688068BF
:100A900000F0010078B9A06A40F01000A062E06A9E
:100AA00040F00100E06200BF002084F8240000BF95
:100AB000012038BD05E02068806800F001000028B2
:100AC000DFD00020F5E700000000002040420F00CA
:100AD0003EB5002411E0204600F01AF80546B5F5B1
:100AE000005F00D30AE00C226946284604F0D0F8E3
:100AF0000098401C00B901E0641CECE700BF03480B
:100B00000460204600F004F83EBD00001C000020F8
:100B1000014640F25512B1FBF2F0002303EB003026
:100B2000B1FBF2F302FB131303EB430300EB83006F
:100B30007047000001480068704700001C0000205A
:100B400001480068704700001400002010B5002420
:100B500004E0204604F012F904F58054B4F5005F77
:100B6000F7D300200349086003490860034908607F
:100B700010BD000014000020180000201C00002000
:100B800010B5FFF7A5FF0D49086008460068000B87
:100B900000030B490860094800680C30096801F53A
:100BA0008051884209D90648006800F58050044900
:100BB0000860084600680149086010BD1400002064
:100BC0001800002010B504460F492046FFF7EAFB45
:100BD00001D2002010BD0D492046FFF7E3FB01D2F2
:100BE0000120F7E74FF080412046FFF7DBFB01D201
:100BF0000220EFE700212046FFF7D4FB01D20320BB
:100C0000E8E70420E6E70000666626403333134039
:100C100010B500200F490870488008714FF4FA7031
:100C2000C880088104210C4802F0D2FD00200A4946
:100C3000096888630821094802F0CAFD4FF4FA7078
:100C400006490968C86300222021054800F0F8FF22
:100C500010BD0000D802002088010020D001002033
:100C6000000C014010B51748007928B91548408894
:100C70001549096888631EE000F0E8FF0446134840
:100C80000068201A0F49C988884213D30F480460AE
:100C90000F48007808B9012000E000200C490870D6
:100CA0000846007810B10748408800E00020064957
:100CB0000968886300BF0348008906490968C8635A
:100CC00010BD0000D802002088010020280000206C
:100CD0002C000020D001002010B504462D480078DB
:100CE000A04200D110BD2B480470052C4FD2DFE884
:100CF00004F003101E2C3D00002026490871488096
:100D00004FF4FA70088100222021234800F098FF58
:100D10003DE000201F490871642048804FF4FA70BC
:100D20000881002220211C4800F08AFF2FE00020CB
:100D3000184908714FF47A704880401008810022E9
:100D40002021154800F07CFF21E0012011490871A5
:100D50004FF47A7048804010C88040F2DC5008811F
:100D6000012220210C4800F06BFF10E0012009490E
:100D700008714FF47A7048806420C88040F6C4102F
:100D8000088101222021044800F05AFF00BF00BF63
:100D900000BFA7E7D8020020000C014096B065E034
:100DA00003F0A2FC0446607F002859D061883048D7
:100DB00003F02EF9A1882F4803F02AF9A068FFF765
:100DC00001FF81464846FFF787FFA068FFF7D7FA83
:100DD00005462A460B4628A111A804F01DF8E06834
:100DE000FFF7CDFA05462A460B4627A10CA804F0CA
:100DF00013F82069FFF7C3FA05462A460B4627A1D8
:100E000007A804F009F811AA0021084603F07EFBA8
:100E10000CAA0121002003F079FB07AA022100207F
:100E200003F074FB207F88B1A069FFF7A8FA05469C
:100E30000E466069FFF7A3FA07463A460B461BA128
:100E400002A8CDE9005603F0E7FF03E01CA102A8C9
:100E500003F0E2FF02AA0321002003F057FB00BFCA
:100E6000FFF700FF142005F029F900BF98E7000004
:100E700098000020AC00002050535F563A252E32D7
:100E800066562020200000004D513133355F563A20
:100E9000252E326656202020000000004D51325F82
:100EA000563A252E3266562020200000543A252E30
:100EB00031664320483A252E316625250000000082
:100EC00044485432303A20455252000000BFFEE7F9
:100ED0001CB5642000F010FD07A00068019064209C
:100EE000032301AA70210090044801F02FFA50203A
:100EF00000F002FD00201CBDAC33000034010020D6
:100F00002DE9FF4704462BA00068039064200323CB
:100F100003AA70210090284801F018FA18B10120A6
:100F200004B0BDE8F08700F04FF808B10220F7E701
:100F30006420062301AA702100901F4801F050F898
:100F400008B10320ECE79DF8050000039DF80610AA
:100F500040EA01109DF8071040EA21159DF80700AE
:100F60000007000B9DF8081040EA01209DF80910C9
:100F700040EA01062846FFF7FDF980460F49FFF7D2
:100F800089F907464FF09341FFF7B6F960603046A4
:100F9000FFF7F0F981460A49FFF77CF980464FF0E8
:100FA0009341FFF7A9F907460649FFF76DF920605D
:100FB0000020B5E7AC330000340100200000C84237
:100FC00000004843000048421CB500200190002466
:100FD00000BF0A20012301AA70210090094800F0F7
:100FE000FFFF022000F088FC641C322C01D9012094
:100FF0001CBD9DF8040000F080000028E9D100BF6E
:10100000F6E700003401002010B5024800F024FB90
:1010100010BD0000F000002030B590F840500124D1
:10102000AC40C56B6C60046863604468102C04D1EC
:101030000468A2600468E16003E00468A1600468D9
:10104000E26030BD704772B600BFFEE7F8B50446F7
:1010500000260020009000BF94F82400012801D150
:101060000220F8BD012084F8240000BF2046FFF7CD
:1010700079FC06462046FFF7E3FC0646002E69D1C0
:10108000A06A20F4885040F00200A062022001F023
:1010900021FB34490968B1FBF0F04000009002E008
:1010A0000098401E009000980028F9D120688068C0
:1010B00040F008002168886000F0C8FD054616E091
:1010C00000F0C4FD401B0A2811D92068806800F098
:1010D000080060B1A06A20F0020040F01000A06299
:1010E00000BF002084F8240000BF0120B9E7206879
:1010F000806800F008000028E2D12068806840F095
:1011000004002168886000F0A1FD054616E000F0AB
:101110009DFD401B0A2811D92068806800F004005A
:1011200060B1A06A20F0020040F01000A06200BF91
:10113000002084F8240000BF012092E72068806826
:1011400000F004000028E2D1A06A20F0020040F084
:101150000100A06200BF002084F8240000BF3046D8
:101160007FE700000000002038B502460023002081
:10117000009000BF92F82400012801D1022038BD60
:10118000012082F8240000BF4868072812D21068A6
:10119000406B0C79641E04EB84051F24AC40A04313
:1011A0000D796D1E05EB85050C68AC402043146875
:1011B000606327E048680D2812D21068006B0C7934
:1011C000E41F04EB84051F24AC40A0430D79ED1F00
:1011D00005EB85050C68AC4020431468206311E0E2
:1011E0001068C06A0C790D3C04EB84051F24AC40E8
:1011F000A0430D790D3D05EB85050C68AC402043FF
:101200001468E06208680A2812D31068C0680C7875
:101210000A3C04EB44050724AC40A0430D780A3D8A
:1012200005EB45058C68AC4020431468E0600FE096
:10123000106800690C7804EB44050724AC40A04317
:101240000D7805EB45058C68AC402043146820619F
:101250000868102802D00868112827D1174C106898
:10126000A0421ED11068806800F40000F0B9106838
:10127000806840F400001468A0600868102815D148
:101280000F4800680F4CB0FBF4F000EB800040000A
:10129000009002E00098401E009000980028F9D1CC
:1012A00004E0906A40F020009062012300BF00201B
:1012B00082F8240000BF184661E7000000240140C6
:1012C0000000002040420F00034A0168914202D111
:1012D0000121024A117070470024014026000020BD
:1012E000704770472DE9F04104460027002500268D
:1012F000A84614B90120BDE8F081A06810B1207D96
:1013000000B100BFA06A30B90020E06284F8240078
:10131000204600F089F82046FFF724FB0746A06A24
:1013200000F01000002873D1002F71D1A06A20F4C2
:10133000885040F00200A062E16960680843217BA8
:1013400040EA41000643A068B0F5807F02D0A06863
:10135000012802D14FF4807000E000200543207D79
:10136000012811D1207B38B9A069401E4FF40061DB
:1013700041EA4030054307E0A06A40F02000A06247
:10138000E06A40F00100E0622068406820F46940B3
:10139000284321684860206880682149084030431C
:1013A00021688860A068B0F5807F02D0A06801281D
:1013B00002D14FF4807000E00020B0F5807F03D1AF
:1013C000208A401E4FEA00582068C06A20F470004E
:1013D00040EA08002168C862206880681149084016
:1013E000B04208D10020E062A06A20F0020040F084
:1013F0000100A06211E0A06A20F0020040F010009D
:10140000A062E06A40F00100E062012705E0FFE72A
:10141000A06A40F01000A062012738466BE7000088
:10142000FDF7E1FFFE0E1FFF10B586B00446002059
:1014300002900390049005902249206888423ED192
:1014400000BF2148806940F400701F498861084648
:10145000806900F40070019000BF00BF00BF084623
:10146000806940F0040088610846806900F004004B
:10147000019000BF00BF702002900320039002A9DA
:10148000124800F04DFA12481249086000204860E6
:101490000021104881608021C160490001618900FC
:1014A0004161202181610021C16100F0A3F908B1EF
:1014B000FFF7C9FD00BF07482062446200BF06B0C5
:1014C00010BD00000024014000100240000801404F
:1014D00008000240F00000202DE9F04104460D46CE
:1014E0001646002757492068884203D0564920688D
:1014F000884205D15348001D006800F4702000E0C8
:10150000002000287ED100BF94F82400012802D1D9
:101510000220BDE8F081012084F8240000BF2046AD
:10152000FFF78EFA0746002F6DD1A06A40F60161E1
:10153000884340F48070A06243492068884209D102
:101540004048001D006800F4702008B9012002E046
:10155000002000E0012078B1A06A20F48010A06291
:101560002068406800F4806000B3A06A20F4005056
:1015700040F48050A06219E0A06A40F48010A0629C
:1015800030492068884203D02F492068884205D11D
:101590002C48001D006800F4806000E0002028B1A5
:1015A000A06A20F4005040F48050A062A06A00F4C9
:1015B000805020B1E06A20F00600E06201E00020E7
:1015C000E06200BF002084F8240000BF1F48216AA9
:1015D00088621F48216AC8621E48216A08636FF04A
:1015E0000200216808602068806840F480702168EB
:1015F0008860226802F14C0133462A46206A00F0D6
:101600002DF901E01AE014E02068806800F4602001
:10161000B0F5602F06D12068806840F4A0002168F2
:1016200088600CE02068806840F480102168886041
:1016300005E000BF002084F8240000E001273846C0
:1016400067E700000024014000280140C1090008AC
:10165000310A0008130A000870B50446E06B0568FB
:101660002068066894F8401004208840284000282C
:1016700046D006F00400002842D02068006800F040
:10168000200028B92068006820F004002168086064
:1016900057492068884201D1042027E05449143179
:1016A0002068884201D1402020E05149283120683B
:1016B000884201D1001519E04D493C31206888422B
:1016C00002D14FF4804011E04949503120688842EE
:1016D00002D14FF4802009E04549643120688842F6
:1016E00002D14FF4800001E04FF08060404908399A
:1016F0004860E06A00287AD02046E16A884776E0B0
:1017000094F84010022088402840A0B306F0020060
:1017100088B32068006800F0200040B920680068A5
:1017200020F00A0021680860012084F82100304977
:101730002068884201D1022028E02D491431206818
:10174000884201D1202021E029492831206888429F
:1017500001D140151AE026493C312068884202D167
:101760004FF4005012E0224950312068884203D1E2
:101770004FF400300AE017E01D49643120688842C8
:1017800002D14FF4001001E04FF000701849083901
:10179000486000BF002084F8200000BFA06A30B37A
:1017A0002046A16A884722E094F84010082088402B
:1017B0002840E0B106F00800C8B12068006820F0B9
:1017C0000E002168086094F8401001208840E16B09
:1017D00048600120A06384F8210000BF002084F845
:1017E000200000BF206B10B12046216B884770BDE0
:1017F000080002400146002209B901207047164B3B
:101800000868C01A1423B0FBF3F080000864124883
:101810000838C863022081F821000868026843F68E
:10182000F0708243D1E901031843CB6818430B6978
:1018300018434B6918438B691843CB69184302431B
:101840000868026000208863012081F821000020E0
:1018500081F8200000BFD1E7080002402DE9F041E7
:1018600004460D4616461F464FF0000800BF94F888
:101870002000012802D10220BDE8F081012084F877
:10188000200000BF94F8210001282CD1022084F808
:1018900021000020A0632068006820F0010021687A
:1018A00008603B46324629462046FFF7B5FBE06A12
:1018B00030B12068006840F00E00216808600BE03D
:1018C0002068006820F00400216808602068006833
:1018D00040F00A00216808602068006840F00100BC
:1018E0002168086006E000BF002084F8200000BFE7
:1018F0004FF002084046BFE770B5044600F0A6F975
:1019000006462546681C10B104480078054400BF0F
:1019100000F09CF9801BA842FAD370BD0C00002097
:101920002DE9F8470346002294466EE14FF0010886
:1019300008FA02F4D1F8008008EA0400A0427DD140
:10194000DFF8DCA2D1F80480A8EB0A09D0453AD030
:1019500014DCB8F1030F50D009DCB8F1000F31D01E
:10196000B8F1010F1CD0B8F1020F49D120E0B8F155
:10197000110F18D0B8F1120F42D11EE0B9F5881F2F
:1019800025D006DCB9F5803F20D0B9F5801F37D1CE
:101990001AE0B9F5001F18D0B9F5041F30D117E0CF
:1019A000D1F80CC02DE0D1F80C8008F1040C28E02F
:1019B000D1F80C8008F1080C23E0D1F80C8008F174
:1019C0000C0C1EE000BF00BF00BF00BF00BF00BF87
:1019D000D1F80880B8F1000F02D14FF0040C0BE0F1
:1019E000D1F80880B8F1010F03D14FF0080C1C6149
:1019F00002E04FF0080C5C6103E04FF0000C00E0E7
:101A000000BF00BFFF2801D8984601E003F1040899
:101A10004646FF2802D84FEA820803E0A2F10808F0
:101A20004FEA88084746D6F800804FF00F0909FAB8
:101A300007F928EA09080CFA07F900E088E048EA03
:101A40000908C6F80080D1F8048008F08058B8F181
:101A5000805F7DD100BFDFF8CC81D8F8188048F0D6
:101A60000108DFF8C091C9F81880C846D8F8188076
:101A700008F00108CDF8008000BF00BF4FEAB93878
:101A80004FEA920958F829504FEA82784FEA1879BC
:101A90004FF00F0808FA09F825EA0805DFF88881F1
:101AA000434502D14FF0000816E0DFF8808143453E
:101AB00002D14FF001080FE0DFF87481434502D1F5
:101AC0004FF0020808E0DFF86C81434502D14FF087
:101AD000030801E04FF004084FEA82794FEA1979D0
:101AE00008FA09F848EA0505DFF84C814FEA92093F
:101AF00048F82950D1F8048008F48018B8F5801F00
:101B00000AD1DFF83881D8F8008048EA0008DFF809
:101B10002C91C9F8008009E0DFF82081D8F8008016
:101B200028EA0008DFF81491C9F80080D1F8048091
:101B300008F40018B8F5001F10D1DFF8008108F193
:101B40000408D8F8008048EA0008DFF8F09000E0C8
:101B50005AE009F10409C9F800800DE0DFF8DC80E3
:101B600008F10408D8F8008028EA0008DFF8CC90D3
:101B700009F10409C9F80080D1F8048008F400389C
:101B8000B8F5003F0ED1DFF8B480A8F10408D8F80A
:101B9000008048EA0008DFF8A490A9F10409C9F818
:101BA00000800DE0DFF89480A8F10408D8F80080E8
:101BB00028EA0008DFF88490A9F10409C9F8008038
:101BC000D1F8048008F48038B8F5803F0ED1DFF8F2
:101BD0006C80A8F10808D8F8008048EA0008DFF80F
:101BE0005C90A9F10809C9F800800DE0DFF84C808D
:101BF000A8F10808D8F8008028EA0008DFF83C902F
:101C0000A9F10809C9F80080521CD1F8008028FA0F
:101C100002F8B8F1000F7FF489AEBDE8F887000044
:101C2000000011100010024000080140000C0140AB
:101C30000010014000140140080001400804014068
:101C40000AB1016101E00B040361704701480068BB
:101C5000704700000400002070B504460CB9012054
:101C600070BD94F83D0028B9002084F83C0020465F
:101C700000F024FC242084F83D002068006820F057
:101C80000100216808602068006840F40040216875
:101C900008602068006820F400402168086000F0B7
:101CA000FBFE05465C496068884206D85B48854271
:101CB00001D2012007E0002005E05948854201D209
:101CC000012000E00020012800D1C9E75548B5FBFC
:101CD000F0F62068406820F03F00304321684860FB
:101CE0004D496068884201D8701C07E04FF4967037
:101CF00070434FF47A71B0FBF1F0401C2168096A1F
:101D000021F03F0108432168086243496068884226
:101D100014D8681E61684900B0FBF1F0401CC0F3A4
:101D20000B00042801D204203DE0681E61684900D0
:101D3000B0FBF1F0401CC0F30B0034E0A06838B9F0
:101D4000681E616801EB4101B0FBF1F0401C0AE044
:101D5000681E616801EBC10202EB0111B0FBF1F0FA
:101D6000401C40F48040C0F30B0008B901201AE089
:101D7000A06848B9681E616801EB4101B0FBF1F051
:101D8000401CC0F30B000CE0681E616801EBC1024F
:101D900002EB0111B0FBF1F0401CC0F30B0040F46A
:101DA000804040F400402168C9694CF6FF729143BD
:101DB00008432168C861D4E907010843216809681C
:101DC00021F0C001084321680860D4E903100843EA
:101DD0002168896848F2FF3291430843216888608E
:101DE000D4E9050108432168C96821F0FF010843CF
:101DF0002168C8602068006840F001002168086020
:101E000000202064202084F83D000020206384F816
:101E10003E0000BF24E70000A086010080841E0071
:101E200000093D0040420F002DE9F84F04460F46DF
:101E300090461E46FFF70AFF05464FF0000994F84A
:101E40003D0020287ED119230122634920460095B8
:101E500001F07DFF10B10220BDE8F88F00BF94F8BB
:101E60003C00012801D10220F6E7012084F83C0063
:101E700000BF2068006800F0010028B920680068F1
:101E800040F00100216808602068006820F40060CC
:101E900021680860242084F83D00002020644F4819
:101EA000E06200BF2068006840F48070216808602C
:101EB000334600224FF001112046009501F047FF04
:101EC00058B12068006800F48070B0F5807F02D1BE
:101ED0004FF4007020640320BEE707F0FE00216885
:101EE0000861FFF7B3FE054620684069C0F3400A69
:101EF00020684069C0F3802B10E0FFF7A7FE401B6D
:101F0000B04200D816B9A02084F83D00206840698E
:101F1000C0F3400A20684069C0F3802B94F83D006C
:101F2000A02805D0BAF1000F02D1BBF1000FE4D018
:101F3000202084F83D0020684069C0F3400028B3A9
:101F4000206800E045E0006840F400702168086007
:101F500000BF0020009020684069009020688069E0
:101F6000009000BF00BF192301221B4920460095A5
:101F700001F0EDFE08B101206EE7202084F83D005D
:101F800000BF002084F83C0000BF65E720680068BF
:101F900040F40070216808606FF480602168486137
:101FA000192301220C492046009501F0D0FE08B10A
:101FB000012051E709F10109C145FFF473AF202069
:101FC00084F83D0000BF002084F83C0000BF0120E1
:101FD00042E7022040E70000020010000000FFFF7F
:101FE0002DE9FC4704468946174698460A9E00207C
:101FF0000190FFF72BFE054694F83D0020286FD195
:1020000019230122CD492046009501F0A0FE10B110
:102010000220BDE8FC8700BF94F83C00012801D1F4
:102020000220F6E7012084F83C0000BF2068006829
:1020300000F0010028B92068006840F00100216824
:1020400008602068006820F4006021680860222091
:1020500084F83D00102084F83E0000202064676270
:10206000A4F82A80608D2085B548E0622B46324670
:102070004946204601F018FD08B10120C9E7208D2E
:1020800088B900BF00200090206840690090206857
:102090008069009000BF00BF2068006840F40070B5
:1020A000216808604BE0208D01281AD12068006863
:1020B00020F480602168086072B600BF00200090A4
:1020C00020684069009020688069009000BF00BFD0
:1020D0002068006840F400702168086062B62EE055
:1020E00029E1208D022819D12068006840F40060A1
:1020F0002168086072B600BF002000902068406927
:10210000009020688069009000BF00BF20680068D0
:1021100020F480602168086062B610E020680068E2
:1021200040F480602168086000BF002000902068B3
:102130004069009020688069009000BF00BFEBE01C
:10214000208D03287ED8208D012815D12A463146BE
:10215000204601F0D8FE08B101205AE72068006946
:10216000616A0870606A401C6062208D401E208594
:10217000608D401E6085CFE0208D02282CD1334633
:10218000002270492046009501F0E1FD08B10120D0
:102190003FE772B62068006840F40070216808606C
:1021A00020680069616A0870606A401C6062208D66
:1021B000401E2085608D401E608562B620680069E3
:1021C000616A0870606A401C6062208D401E208534
:1021D000608D401E60859FE03346002259492046AD
:1021E000009501F0B4FD08B1012012E720680068F5
:1021F00020F480602168086072B620680069616A16
:102200000870606A401C6062208D401E2085608DD1
:10221000401E60854C4800681921B0FBF1F04FF476
:102220007A71B0FBF1F0C0EBC00000EB80000190D0
:1022300000BF0198401E01900198A8B900202063BA
:10224000202000E038E084F83D00002084F83E00C3
:10225000206C40F02000206462B600BF002084F8AB
:102260003C0000BF0120D4E620684069C0F3800034
:102270000028DED02068006840F400702168086003
:1022800020680069616A0870606A401C6062208D85
:10229000401E2085608D401E608562B62068006902
:1022A000616A0870606A401C6062208D401E208553
:1022B000608D401E60852FE02A463146204601F0A1
:1022C00022FE08B10120A4E620680069616A087056
:1022D000606A401C6062208D401E2085608D401E1B
:1022E000608520684069C0F38000A8B1208D032874
:1022F00005D12068006820F48060216808602068AB
:102300000069616A0870606A401C6062208D401E2E
:102310002085608D401E6085208D00287FF410AFE1
:10232000202084F83D00002084F83E0000BF84F89F
:102330003C0000BF6DE602206BE6000002001000CA
:102340000000FFFF04000100000000202DE9F84319
:102350000446894616461F46DDF82080FFF776FCC6
:10236000054694F83D0020287ED1192301225149C9
:102370002046009501F0EBFC10B10220BDE8F88387
:1023800000BF94F83C00012801D10220F6E70120AB
:1023900084F83C0000BF2068006800F0010028B904
:1023A0002068006840F0010021680860206800682B
:1023B00020F4006021680860212084F83D0010208E
:1023C00084F83E000020206466626785608D208569
:1023D0003948E0622B4642464946204601F000FC5F
:1023E00008B10120CAE700BF0020009020684069C2
:1023F000009020688069009000BF00BF44E02A463A
:102400004146204601F0C4FD50B1206C042805D19E
:102410002068006840F40070216808600120ADE782
:10242000606A007821680861606A401C6062608DA3
:10243000401E6085208D401E208520684069C0F3C5
:10244000800070B1208D60B1606A007821680861F9
:10245000606A401C6062608D401E6085208D401E59
:1024600020852A46414600E022E0204601F03CFC5F
:1024700050B1206C042805D12068006840F4007039
:1024800021680860012079E7208D0028B7D12068F5
:10249000006840F4007021680860202084F83D0046
:1024A000002084F83E0000BF84F83C0000BF65E7D0
:1024B000022063E7020010000000FFFF10B586B0A5
:1024C000044600200290039004900590154920686E
:1024D000884225D100BF1448806940F008001249A5
:1024E00088610846806900F00800019000BF00BFC5
:1024F000C0200290122003900320059002A90B48EF
:10250000FFF70EFA00BF0848C06940F40010064902
:10251000C8610846C06900F40010019000BF00BF08
:1025200006B010BD0054004000100240000C0140F5
:102530000348006803490978084401490860704766
:10254000040000200C00002010B50848006840F08E
:10255000100006490860032000F0A8F80F2000F0E2
:1025600007F800F02BF8002010BD0000002002400A
:1025700070B504460E4800784FF47A71B1FBF0F064
:102580000C490968B1FBF0F5284600F0D7FE08B108
:10259000012070BD102C07D200222146501E00F0F1
:1025A00047F80548046001E00120F2E70020F0E769
:1025B0000C000020000000200800002008B500BF2B
:1025C0001148806940F001000F4988610846806920
:1025D00000F00100009000BF00BF00BF0846C069C6
:1025E00040F08050C8610846C06900F080500090FB
:1025F00000BF00BF00BF0549486820F0E06040F020
:102600000070486000BF08BD00100240000001409B
:1026100001460846002809DB00F01F0301229A400A
:1026200043099B0003F1E023C3F8002100BF70477A
:102630002DE9F05F80460D461646002702F000FCAB
:10264000074639462A46334601F00700C0F1070A1B
:10265000BAF1040F02D94FF0040A01E0C0F1070AF1
:10266000D14600F1040ABAF1070F02D24FF0000A76
:1026700001E0A0F1030AD4464FF0010A0AFA09FA70
:10268000AAF1010A0AEA020A0AFA0CFA4FF0010B4F
:102690000BFA0CFBABF1010B0BEA030B4AEA0B0440
:1026A0002146404602F0D4FBBDE8F09F00BF00F099
:1026B0000702064B19684FF6FF031940044B0B4302
:1026C00043EA0221014B196000BF70470CED00E0A6
:1026D0000000FA052DE9F04706464FF000080025F6
:1026E00000270024A146012E31D0022E56D0102EF4
:1026F0005FD132484468006800F0807008B3304809
:10270000C4F38341475C04F4803078B12B484068BF
:10271000C0F340402B4911F8008004F4803040B1F0
:102720002948B0FBF8F000FB07F502E0274807FB5B
:1027300000F52248406800F48000B0F5800F01D118
:10274000A94603E068000321B0FBF1F932E01B4821
:10275000046A04F44070B0F5807F05D104F00200F3
:1027600010B14FF4004918E004F44070B0F5007F58
:1027700007D11248406A00F0020010B149F6404902
:102780000BE004F44070B0F5407F06D10B480068C0
:1027900000F4003008B14FF224490BE000F08CF94E
:1027A00006494968C1F38131491C4900B0FBF1F980
:1027B00000E000BF00BF4846BDE8F08700100240BF
:1027C000A2660008B266000800127A0000093D0007
:1027D000F8B5044600260025207800F00100002806
:1027E0006BD000274348C06900F0805070B900BF2B
:1027F0004048C06940F080503E49C8610846C06901
:1028000000F08050009000BF00BF01273A480068E8
:1028100000F48070B0B93848006840F480703649E0
:102820000860FFF713FA064606E0FFF70FFA801B71
:10283000642801D90320F8BD2F48006800F4807097
:102840000028F2D02B48006A00F440752DB3A08810
:1028500000F44070A84220D02648006A20F4407559
:10286000012026490860002008602248056205F022
:10287000010090B1FFF7EAF9064608E0FFF7E6F934
:10288000801B41F28831884201D90320D3E71948DF
:10289000006A00F002000028F0D01648006A20F418
:1028A00040706168084313490862012F04D108464B
:1028B000C06920F08050C86100BF207800F002009D
:1028C000022807D10B48406820F44040A168084323
:1028D00008494860207800F01000102807D105480A
:1028E000406820F48000E168084302494860002005
:1028F000A1E7000000100240007000404004424286
:1029000070B504460D460CB9012070BD5A480068E8
:1029100000F00700A8420ED25748006820F00700D8
:102920002843554908600846006800F00700A8429F
:1029300001D00120E9E7207800F0020002281DD133
:10294000207800F00400042805D14C48406840F489
:10295000E0604A494860207800F00800082805D166
:102960004648406840F460504449486043484068E5
:1029700020F0F000A168084340494860207800F04A
:10298000010078B36068012806D13C48006800F473
:10299000003090B90120B8E76068022806D13748B6
:1029A000006800F0007040B90120AEE733480068CD
:1029B00000F0020008B90120A7E73048406820F085
:1029C0000300616808432D494860FFF73FF9064658
:1029D00009E0FFF73BF9801B41F28831884202D9B8
:1029E000032092E707E02548406800F00C0061688A
:1029F000B0EB810FEDD12048006800F00700A8423D
:102A00000ED91D48006820F0070028431A490860C5
:102A10000846006800F00700A84201D0012074E7D2
:102A2000207800F00400042807D11448406820F4FE
:102A3000E060E168084311494860207800F0080030
:102A4000082808D10D48406820F46050216940EA08
:102A5000C1000A49486000F03FF808494968C1F3DD
:102A60000311074A515CC8400649086006480068DF
:102A7000FFF77EFD002048E70020024000100240E2
:102A80007866000800000020080000200148006867
:102A9000704700000000002000B5FFF7F7FF044971
:102AA0004968C1F30221034A515CC84000BD0000DF
:102AB000001002408866000800B5FFF7E7FF0449F0
:102AC0004968C1F3C221034A515CC84000BD0000FF
:102AD000001002408866000870B500210022002422
:102AE00000230020134D696801F00C05F5B1042D99
:102AF00002D0082D19D101E00F4819E00F4DC1F3A4
:102B00008346AB5D01F4803555B10A4D6D68C5F360
:102B100040450B4E725D084D5D43B5FBF2F402E09B
:102B2000084D03FB05F4204602E000BF024800BF49
:102B300000BF70BD0010024000127A0090660008CD
:102B4000A066000800093D00F8B504460CB9012054
:102B5000F8BD207800F00100002878D0F8484068DF
:102B600000F00C0004280CD0F548406800F00C0080
:102B7000082811D1F248406800F48030B0F5803F59
:102B80000AD1EF48006800F4003000285FD0606888
:102B900000285CD10120DBE700BF6068B0F5803F12
:102BA00006D1E748006840F48030E549086028E035
:102BB000606858B9E248006820F48030E049086055
:102BC0000846006820F4802008601AE06068B0F5CC
:102BD000A02F0BD1DA48006840F48020D849086063
:102BE0000846006840F4803008600AE0D448006875
:102BF00020F48030D24908600846006820F4802024
:102C0000086000BF606888B1FFF720F8054606E05D
:102C1000FFF71CF8401B642801D9032098E7C84837
:102C2000006800F400300028F2D010E0FFF70EF842
:102C3000054606E0FFF70AF8401B642801D9032087
:102C400086E7BF48006800F400300028F2D1207801
:102C500000F00200022857D1B948406800F00C008B
:102C600050B1B748406800F00C00082818D1B448AB
:102C7000406800F4803098B9B148006800F0020064
:102C800020B12069012801D0012061E7AC4800682B
:102C900020F0F800616940EAC100A949086033E00A
:102CA0002069E8B10120A7490860FEF7CFFF05467B
:102CB00006E0FEF7CBFF401B022801D9032047E7BF
:102CC0009F48006800F002000028F2D09C4800688D
:102CD00020F0F800616940EAC1009949086013E0FA
:102CE000002098490860FEF7B1FF054606E0FEF7B0
:102CF000ADFF401B022801D9032029E79048006856
:102D000000F002000028F2D1207800F00800082826
:102D10002DD1A069B8B101208B490860FEF796FF5C
:102D2000054606E0FEF792FF401B022801D903206A
:102D30000EE78348406A00F002000028F2D001202C
:102D400001F028FC13E000207F490860FEF77EFFB9
:102D5000054606E0FEF77AFF401B022801D9032052
:102D6000F6E67748406A00F002000028F2D12078A9
:102D700000F00400042873D100277148C06900F0F6
:102D8000805070B900BF6E48C06940F080506C49F7
:102D9000C8610846C06900F08050009000BF00BFC5
:102DA00001276A48006800F48070B0B9674800687D
:102DB00040F4807065490860FEF748FF054606E06C
:102DC000FEF744FF401B642801D90320C0E65F489A
:102DD000006800F480700028F2D000BFE06801288D
:102DE00006D15748006A40F001005549086227E0C3
:102DF000E06858B95248006A20F001005049086262
:102E00000846006A20F00400086219E0E06805281E
:102E10000BD14B48006A40F004004949086208465B
:102E2000006A40F0010008620AE04548006A20F0AC
:102E30000100434908620846006A20F00400086265
:102E400000BFE068A0B1FEF701FF054609E0FEF70C
:102E5000FDFE401B41F28831884202D9032077E60B
:102E600022E03748006A00F002000028EFD012E0AC
:102E7000FEF7ECFE054608E0FEF7E8FE401B41F2D7
:102E80008831884201D9032062E62D48006A00F0AB
:102E900002000028F0D1012F05D12948C06920F097
:102EA00080502749C86100BFE069C8B32448406822
:102EB00000F00C00082860D0E069022848D100200A
:102EC00020490866FEF7C2FE054606E0FEF7BEFE94
:102ED000401B022801D903203AE61948006800F097
:102EE00000700028F2D1206AB0F5803F07D1144865
:102EF000406820F40030A168084311494860D4E9D3
:102F0000080108430E49496821F4741108430C492B
:102F1000486001200B490866FEF798FE054607E069
:102F20003DE0FEF793FE401B022801D903200FE687
:102F30000348006800F000700028F2D02FE0000085
:102F400000100240000042428004424200700040F3
:102F5000002014490866FEF779FE054606E0FEF7F4
:102F600075FE401B022801D90320F1E50E480068D8
:102F700000F000700028F2D111E0E069012800D1D2
:102F8000E6E50948466806F48031206A814204D1AA
:102F900006F47011606A814201D00120D8E500205A
:102FA000D6E50000000042420010024010B5044681
:102FB0000CB9012010BD606A38B96068B0F5827F35
:102FC00000D105E00021E16102E0002121616161A1
:102FD0000021A16294F8510028B9002084F8500023
:102FE000204600F043F8022084F851002068006871
:102FF00020F0400021680860A08800F482702189D8
:1030000001F404410843A18901F400610843217CD3
:1030100001F002010843217D01F001010843218BE9
:1030200001F400710843217F01F038010843202199
:10303000095D01F080010843218D01F4005108432E
:10304000216808600421A06901EA104021684860F5
:103050002068C06920F400602168C86100206065B4
:10306000012084F851000020A4E7000010B586B0CC
:103070000446002002900390049005901A492068AD
:1030800088422FD100BF1948C06940F480401749D9
:10309000C8610846C06900F48040019000BF00BFCD
:1030A00000BF0846806940F00800886108468069D2
:1030B00000F00800019000BF00BF4FF420400290D4
:1030C000022003900320059002A90948FEF728FC7E
:1030D0004FF48040029000200390049002A904481D
:1030E000FEF71EFC06B010BD003800400010024084
:1030F000000C01402DE9FE4F04460F4690461D4648
:103100000C9E01200190FEF7A1FD814694F851B07C
:1031100060680290AA46BBF1010F0BD00298B0F58F
:10312000827F04D1A06810B9BBF1040F02D0022045
:10313000BDE8FE8F1FB1B8F1000F00D00DB901201E
:10314000F6E700BF94F85000012801D10220EFE714
:10315000012084F8500000BF94F85100042802D0E8
:10316000052084F8510000206065C4F83880E587A8
:10317000A5872763E586A5862064606420680068CB
:1031800000F04000402805D02068006840F0400072
:1031900021680860E068B0F5006F52D1606810B136
:1031A000BAF1010F09D1206B00882168C860206B3B
:1031B000801C2063E08E401EE0863BE02068806833
:1031C00000F00200022810D1E08E70B101980128B1
:1031D0000BD1206B00882168C860206B801C2063A5
:1031E000E08E401EE086002001902068806800F09C
:1031F000010068B1E08F58B12068C068A16B0880F9
:10320000A06B801CA063E08F401EE087012001902E
:10321000FEF71CFDA0EB0900B0420BD3701C48B1B7
:10322000012084F8510000BF002084F8500000BF46
:1032300003207DE7E08E0028C0D1E08F0028BDD1BB
:1032400052E0606810B1BAF1010F09D1206B00782B
:1032500021680873206B401C2063E08E401EE086CE
:103260003CE02068806800F00200022810D1E08E67
:1032700070B1019801280BD1206B00782168087388
:10328000206B401C2063E08E401EE08600200190F1
:103290002068806800F0010068B1E08F58B12068B4
:1032A000C068A16B0870A06B401CA063E08F401E3B
:1032B000E08701200190FEF7C9FCA0EB0900B042B5
:1032C00001D3701C00B94EB9012084F8510000BF31
:1032D000002084F8500000BF032029E7E08E00287A
:1032E000BFD1E08F0028BCD14A463146204601F0CC
:1032F00065F940B12020606500BF002084F85000CF
:1033000000BF012014E7A06850B900BF0020009062
:103310002068C068009020688068009000BF00BFEF
:10332000012084F8510000BF002084F8500000BF45
:10333000606D08B10120FBE60020F9E670B5044697
:103340002546681EB0F1807F01D301200FE0681E82
:103350004FF0E02148610F214FF0FF3001F078FD80
:1033600000204FF0E021886107200861002070BD37
:103370007047704730B502460B4600BF92F83C00DC
:10338000012801D1022030BD012082F83C0000BF9D
:10339000022082F83D00106844681068816824F0BB
:1033A00070041868044310684460104D1068A84207
:1033B0000BD01068B0F1804F07D00D4D1068A842B7
:1033C00003D00C4D1068A84205D121F08001586847
:1033D000014310688160012082F83D0000BF002099
:1033E00082F83C0000BF00BFCDE70000002C014088
:1033F0000004004000080040704770B50446206893
:10340000C5682068066906F00200022819D105F097
:103410000200022815D1401F216808610120207791
:103420002068806900F0030018B12046FFF7E4FF30
:1034300005E0204600F0E0F8204600F0C7F9002043
:10344000207706F00400042819D105F004000428B0
:1034500015D1C04321680861022020772068806967
:1034600000F4407018B12046FFF7C6FF05E0204683
:1034700000F0C2F8204600F0A9F90020207706F0FD
:103480000800082819D105F00800082815D1C04304
:1034900021680861042020772068C06900F00300DB
:1034A00018B12046FFF7A8FF05E0204600F0A4F879
:1034B000204600F08BF90020207706F0100010283D
:1034C00019D105F01000102815D1C04321680861FA
:1034D000082020772068C06900F4407018B12046A9
:1034E000FFF78AFF05E0204600F086F8204600F04E
:1034F0006DF90020207706F0010048B105F00100C9
:1035000030B16FF0010021680861204600F0CAF96F
:1035100006F08000802809D105F08000802805D1C0
:10352000C043216808612046FFF722FF06F04000F3
:10353000402809D105F04000402805D1C04321684A
:103540000861204600F0AFF906F02000202809D1DC
:1035500005F02000202805D1C043216808612046DD
:10356000FFF707FF70BD000010B586B004460020CD
:1035700002900390049005902068B0F1804F16D11E
:1035800000BF1948806940F0040017498861084667
:10359000806900F00400019000BF00BF022002908B
:1035A0000390059002A91148FEF7BAF91AE01049F4
:1035B0002068884216D100BF0B48806940F008009F
:1035C000094988610846806900F00800019000BF41
:1035D00000BF0120029002200390059002A9054837
:1035E000FEF79EF906B010BD001002400008014031
:1035F00000040040000C014070472DE9F0410446F2
:103600000D461646002700BF94F83C00012802D161
:103610000220BDE8F081012084F83C0000BF36B1F3
:10362000042E1BD0082E31D00C2E5ED145E0294649
:10363000206801F06BF92068806940F0080021687B
:1036400088612068806920F0040021688861206812
:103650008069296908432168886148E02946206813
:1036600001F084F92068806940F400602168886175
:103670002068806920F48060216888612068806902
:10368000296940EA01202168886130E029462068E4
:1036900001F0A0F92068C06940F008002168C86105
:1036A0002068C06920F004002168C8612068C069F2
:1036B000296908432168C86119E02946206801F09A
:1036C000BDF92068C06940F400602168C8612068C5
:1036D000C06920F480602168C8612068C0692969D8
:1036E00040EA01202168C86101E0012700BF00BF56
:1036F00000BF002084F83C0000BF384689E710B5C1
:1037000004460CB9012010BD94F83D0028B90020F2
:1037100084F83C00204600F025F8022084F83D00A3
:10372000211D206801F09EF8012084F8460000BFAA
:1037300084F83E0001213F200155402001554120E1
:10374000015500BF00BF012084F84200432001550D
:10375000442001554520015500BF012084F83D005B
:103760000020D0E738B504462068B0F1804F16D16C
:1037700000BF1448C06940F001001249C861084602
:10378000C06900F00100009000BF00BF0022114698
:103790001C20FEF74DFF1C20FEF73AFF11E00A49FE
:1037A000206888420DD100BF0648C06940F0020081
:1037B0000449C8610846C06900F00200009000BFDB
:1037C00000BF38BD001002400004004070470000F8
:1037D00070B504460D4615B994F83E000BE0042D73
:1037E00002D13F20005D06E0082D02D14020005D9F
:1037F00001E04120005D012801D0012070BD1DB90C
:10380000022084F83E000EE0042D03D102213F2067
:10381000015508E0082D03D102214020015502E0A6
:1038200002214120015501222946206801F05CF85F
:1038300019492068884201D1012000E0002028B108
:103840002068406C40F400402168486412492068B8
:1038500088420BD02068B0F1804F07D00F49206814
:10386000884203D00E49206888420CD120688068C5
:1038700000F00706062E0CD02068006840F001001A
:103880002168086005E02068006840F001002168B8
:1038900008600020B2E70000002C01400004004056
:1038A000000800407047704710B504460CB901206D
:1038B00010BDA06900B100E000BF94F8410028B934
:1038C000002084F84000204600F02AF8242084F8E4
:1038D00041002068C06820F400502168C86020467C
:1038E00001F006F92068006920F490402168086121
:1038F0002068406920F02A00216848612068C0687B
:1039000040F400502168C86000206064202084F8E2
:10391000410084F842000020606300BFC8E7000057
:1039200010B586B0044600200290039004900590E4
:103930001A49206888422ED100BF1948806940F496
:103940008040174988610846806900F480400190F2
:1039500000BF00BF00BF0846806940F004008861D6
:103960000846806900F00400019000BF00BF4815C0
:103970000290022003900320059002A90948FDF758
:10398000CFFF4FF48060029000200390049002A9C2
:103990000448FDF7C5FF06B010BD00000038014027
:1039A00000100240000801402DE9F84F04460E4681
:1039B000174699464FF0000A94F84100202850D14C
:1039C00006B117B90120BDE8F88F002060642120FE
:1039D00084F84100FEF73AF98246A784E784A0689C
:1039E000B0F5805F04D1206910B90025B04602E02F
:1039F00035464FF000081EE0534600228021204645
:103A0000CDF8009001F0F2F820B1202084F84100B8
:103A10000320D8E745B9B8F80000C0F308002168D2
:103A2000486008F1020803E02878216848606D1CAE
:103A3000E08C401EE084E08C0028DDD1534600225B
:103A400040212046CDF8009001F0D0F820B1202090
:103A500084F841000320B6E7202084F841000020CC
:103A6000B1E70220AFE700BFFEE701460868406902
:103A7000C0F38020B0B16FF480600A68506100200C
:103A80000863202081F83D00002081F83E00086C8A
:103A900040F00400086400BF002081F83C0000BF33
:103AA000012070470020FCE72DE9F84304460D464D
:103AB00090461E46E76A2068006840F480602168EE
:103AC0000860082F04D0012F02D017F5803F06D1DF
:103AD0002068006840F480702168086008E0206B6E
:103AE000112805D12068006840F4807021680860C2
:103AF000434600224FF001112046009600F027F9BE
:103B000060B12068006800F48070B0F5807F02D159
:103B10004FF4007020640320BDE8F8832069B0F5FD
:103B2000804F05D1E8B240F001002168086149E00A
:103B300005F44070F02141EAE01021680861334645
:103B400042462649204600F061F908B10120E3E72A
:103B5000E8B221680861334642462049891F204661
:103B600000F054F908B10120D6E700BF0020009012
:103B700020684069009020688069009000BF00BF05
:103B80002068006840F48070216808604346002285
:103B90004FF001112046009600F0D9F858B1206886
:103BA000006800F48070B0F5807F02D14FF400709F
:103BB00020640320B0E705F44070F12141EAE010F1
:103BC00021680861334642460449891F204600F0B7
:103BD0001DF908B101209FE700209DE708000100C2
:103BE0002DE9F84304460D4617469846E66A082E26
:103BF00004D0012E02D016F5803F06D1206800685F
:103C000040F480702168086008E0206B122805D11C
:103C10002068006840F48070216808603B460022FC
:103C20004FF001112046CDF8008000F090F860B10F
:103C30002068006800F48070B0F5807F02D14FF4F6
:103C4000007020640320BDE8F8832069B0F5804F40
:103C500004D105F0FE002168086112E005F440700F
:103C6000F02141EAE0102168086143463A460B49D9
:103C7000204600F0CBF808B10120E4E7E8B2216863
:103C8000086143463A460549891F204600F0BEF8C0
:103C900008B10120D7E70020D5E7000008000100A7
:103CA00010B501240CE061000A2301220648FEF74A
:103CB000BBF818B9214605A001F09EF8601CC4B2FB
:103CC0007F2CF0DB10BD000034010020466F756EC4
:103CD0006420493243206465766963653A20307810
:103CE000253032580D0A000070B504460D461646C0
:103CF00025E02046FFF7B9FE08B1012070BD681C21
:103D0000E8B1FDF7A3FF801BA84200D8BDB9206829
:103D10004069C0F3800090B900202063202084F81F
:103D20003D00002084F83E00206C40F0200020641C
:103D300000BF002084F83C0000BF0120DEE72068BF
:103D40004069C0F380000028D3D00020D6E72DE9D9
:103D5000F04104460D4617461E46DDF8188038E04F
:103D6000701CA8B3FDF772FFA0EB0800B04200D8AA
:103D700076BBC5F3074001280AD120684069A9B283
:103D80000840A9B2884201D101200BE0002009E0DF
:103D900020688069A9B20840A9B2884201D10120F7
:103DA00000E00020B84214D100202063202084F8D5
:103DB0003D00002084F83E00206C40F0200020648C
:103DC00000BF002084F83C0000BF0120BDE8F08166
:103DD000FFE7C5F3074001280AD120684069A9B26E
:103DE0000840A9B2884201D101200BE0002009E07F
:103DF00020688069A9B20840A9B2884201D1012097
:103E000000E00020B842ABD00020DFE72DE9F04110
:103E100004460D4616461F4658E020684069C0F328
:103E20008020E8B12068006840F4007021680860D4
:103E30006FF480602168486100202063202084F8AE
:103E40003D00002084F83E00206C40F00400206417
:103E500000BF002084F83C0000BF0120BDE8F081D5
:103E6000701C90B3FDF7F2FEC01BB04200D866BBD9
:103E7000C5F3074001280AD120684069A9B208406B
:103E8000A9B2884201D101200BE0002009E020689E
:103E90008069A9B20840A9B2884201D1012000E09E
:103EA000002090B900202063202084F83D000020ED
:103EB00084F83E00206C40F02000206400BF002009
:103EC00084F83C0000BF0120C8E7FFE7C5F30740C6
:103ED00001280AD120684069A9B20840A9B28842E5
:103EE00001D101200BE0002009E020688069A9B21F
:103EF0000840A9B2884201D1012000E0002000283A
:103F00008BD00020AAE770B504460D46164637E070
:103F100020684069C0F30010A0B16FF01000216864
:103F2000486100202063202084F83D00002084F8B0
:103F30003E00206C206400BF002084F83C0000BFDD
:103F4000012070BDFDF782FE801BA84200D8BDB9DC
:103F500020684069C0F3801090B9002020632020C1
:103F600084F83D00002084F83E00206C40F02000E2
:103F7000206400BF002084F83C0000BF0120E0E77F
:103F800020684069C0F380100028C1D00020D8E725
:103F900070B504460D46164625E02046FFF765FD40
:103FA00008B1012070BD681CE8B1FDF74FFE801B11
:103FB000A84200D8BDB920684069C0F3C01090B9CC
:103FC00000202063202084F83D00002084F83E007B
:103FD000206C40F02000206400BF002084F83C00EA
:103FE00000BF0120DEE720684069C0F3C010002850
:103FF000D3D00020D6E770B504460D4600202070CF
:10400000FDF724FE606000202074E560A06070BDB4
:104010002DE9F04104460D46FDF718FE064660689E
:10402000371A207820B1012809D0022823D11AE0BC
:10403000E068B84202D80120207020741BE0642D93
:104040000EDAA06808B9A6600CE0A068301A41F248
:104050008831884206D3022020700020207401E0BD
:104060000020A06007E0642D04DB01202070207494
:104070000020A06000BF00BFBDE8F0810EB50020A9
:104080000090019002901E481E49086081151D484D
:10409000816001210173002101754FF46021C1612C
:1040A000002018494860032116480161FDF71AF9FC
:1040B00008B1FCF7C8FF0420009001200190052002
:1040C000029069460F48FDF74FF808B1FCF7BBFFB7
:1040D000052000900220019069460A48FDF744F847
:1040E00008B1FCF7B0FF062000900320019069465C
:1040F0000448FDF739F808B1FCF7A5FF0EBD000034
:1041000000240140C000002008B500BF0A484069F3
:1041100040F00100084948610846406900F001008C
:10412000009000BF00BF002211460B20FEF780FA6E
:104130000B20FEF76DFA08BD0010024000B585B0F7
:104140000020019002900390049000BF2C488069E9
:1041500040F010002A4988610846806900F010008C
:10416000009000BF00BF00BF0846806940F02000FB
:1041700088610846806900F02000009000BF00BF01
:1041800000BF0846806940F00400886108468069E5
:1041900000F00400009000BF00BF00BF0846806927
:1041A00040F0080088610846806900F0080000902F
:1041B00000BF00BF012289151248FDF741FD002212
:1041C00020211148FDF73CFD4FF480700190012043
:1041D0000290002003900220049001A90948FDF7F5
:1041E0009FFB2020019001200290002003900220DC
:1041F000049001A90448FDF793FB05B000BD000041
:104200000010024000080140000C014010B50B48AE
:104210000B4908600B484860002109488160C16073
:104220004FF480410161002141618161C1610162FE
:10423000FDF712FD08B1FCF706FF10BD0054004069
:1042400034010020801A060010B50E480E4908609F
:104250004FF48270486000210B488160C1600161A9
:1042600041614FF4007181610021C16101624162CD
:1042700081620A21C162FEF799FE08B1FCF7E3FEF4
:1042800010BD0000003800406002002000B589B079
:104290000020079008901C216846FBF798FF4FF01C
:1042A0008040174908604720486000211448816019
:1042B00040F2E731C160002101618161FFF71FFA1F
:1042C00008B1FCF7C0FE00200790089007A90C4831
:1042D000FFF750F808B1FCF7B6FE60200090002010
:1042E000019002900490042269460548FFF785F981
:1042F00008B1FCF7A8FE0248FFF736F909B000BD87
:104300008801002000B589B00020079008901C218A
:104310006846FBF75CFF184818490860472048606A
:1043200000211648816044F61F61C16000210161CF
:1043300080218161FFF7E3F908B1FCF784FE0020DA
:104340000790089007A90D48FFF714F808B1FCF78B
:104350007AFE6020009000200190029004900822D4
:1043600069460648FFF749F908B1FCF76CFE0348B7
:10437000FFF7FAF809B000BD00040040D0010020AA
:1043800010B50B480B4908604FF4E130486000213C
:1043900008488160C16001610C2141610021816197
:1043A000C161FFF781FA08B1FCF74DFE10BD0000B6
:1043B000003801401802002000BFFEE700BFFEE702
:1043C00070B5002415E004F1B001C8B200F0B8F8EF
:1043D000002000F0B5F8102000F0B2F8002504E04D
:1043E000002000F0BFF8681CC5B2802DF8DB601C0F
:1043F000C4B2082CE7DB70BD10B56420FDF77CFA71
:10440000AE2000F09DF8202000F09AF8022000F085
:1044100097F8B02000F094F8A12000F091F8C8209F
:1044200000F08EF8002000F08BF8102000F088F8E3
:10443000402000F085F8812000F082F8FF2000F095
:104440007FF8A62000F07CF8A82000F079F83F2043
:1044500000F076F8D32000F073F8002000F070F838
:10446000D52000F06DF8802000F06AF8D92000F027
:1044700067F8F12000F064F8DA2000F061F812200B
:1044800000F05EF8DB2000F05BF8402000F058F808
:104490008D2000F055F8142000F052F8AF2000F005
:1044A0004FF810BD70B505460C4605F1B001C8B215
:1044B00000F046F804F00F0000F042F8102101EB84
:1044C000241000F03DF870BD2DE9F04105460E4680
:1044D0001746A7F1200000F0FF0829463046FFF7F5
:1044E000E1FF002409E008EB4801074A02EB410123
:1044F000085D00F037F8601CC4B2062CF3DB002026
:1045000000F030F8BDE8F081B466000870B50546EB
:104510000E4614460FE0227831462846FFF7D4FFB6
:10452000A81DC5B27A2D05DD0025701CC6B2072E68
:1045300000DD70BD641C20780028ECD100BFF8E7D6
:104540001CB5044600208DF804008DF80540401E7F
:10455000022301AA782100900148FDF7F7FE1CBD57
:10456000340100201CB5044640208DF804008DF86D
:1045700005404FF0FF30022301AA78210090024845
:10458000FDF7E4FE1CBD00003401002010B5FBF770
:10459000DBFD10BD08B508490968C9084FF47A72F7
:1045A000B1FBF2F14143009100BF00BF00994A1EE8
:1045B00000920029F9D108BD00000020F8B504469A
:1045C0000E4615463346012202212046009500F092
:1045D00017F828B1606D40F0200060650320F8BD39
:1045E0003346002280212046009500F009F828B1CA
:1045F000606D40F0200060650320F0E70020EEE7EA
:104600002DE9F84F04460D4690461E46DDF82890E9
:10461000FDF71CFBA0EB0900371AFDF717FB8246DC
:104620002C480068C0F3CB307843009045E0701C04
:10463000002842D0FDF70AFBA0EB0A00B84200D2E6
:10464000A7BB2068406820F0E000216848606068EF
:10465000B0F5827F0DD1A068B0F5004F03D0A068FF
:10466000B0F5806F05D12068006820F04000216817
:104670000860A06AB0F5005F0DD100BF2068006837
:1046800020F40050216808602068006840F4005061
:104690002168086000BF012084F8510000BF00209D
:1046A00084F8500000BF0320BDE8F88FFFE70098B2
:1046B00000B900270098401E0090206880682840BC
:1046C000A84201D1012000E000204045AFD10020E8
:1046D000EAE700000000002010B5FBF713FD10BD55
:1046E00010B5FCF7F5FB10BD7CB5002028494877D4
:1046F0002848007808B908467CBD00202549087084
:1047000001202349487724480088088022484088AF
:1047100048802148808888801F490888FBF72AFE46
:1047200005461E49FBF7E8FD04461D49FBF7B2FDAF
:104730001749886018494888FBF71CFE0546174949
:10474000FBF7DAFD04461649FBF7A4FD1049C860E3
:1047500011498888FBF70EFE05461049FBF7CCFD92
:1047600004460F49FBF796FD094908616846FCF7C6
:10477000C7FB38B906490098486101988861012053
:10478000087702E00020024908770148B4E70000FA
:10479000B8020020260000202000002000F07F4505
:1047A0003333534010B50448FCF750FC032203494F
:1047B0000148FCF791FE10BDC00000202000002041
:1047C00010B5FDF7B5FE01F0E7FD10BD00B593B0E3
:1047D000282109A8FBF7FBFC142104A8FBF7F7FC30
:1047E00000200090019002900390012009900004A5
:1047F0000A9000200B9001200D9002201090C10320
:1048000011914FF4E011129109A8FEF79DF908B13A
:10481000FCF719FC0F200490022005900020069060
:104820004FF48060079000200890022104A8FEF752
:1048300067F808B1FCF707FC0220009080030290A3
:104840006846FDF7C5FF08B1FCF7FDFB13B000BDDE
:104850007047000010B50248FEF7CFFD10BD000004
:104860008801002010B502681C4B984208D0B0F1B6
:10487000804F05D01A4B984202D01A4B984203D170
:1048800022F070024B681A43144B984208D0B0F1E2
:10489000804F05D0124B984202D0124B984203D160
:1048A00022F44072CB681A4322F080034C6943EA39
:1048B000040202608B68C3620B688362074B9842F4
:1048C00001D10B69036301234361036903F0010311
:1048D0001BB1036923F00103036110BD002C0140EB
:1048E000000400400008004030B501F01F0501241D
:1048F00004FA05F3046A9C430462046A01F01F058C
:1049000002FA05F52C43046230BD000030B5026A9E
:10491000056A25F0010505624368846924F0700486
:1049200024F003040D682C4322F002028D682A4310
:104930000D4DA84206D100BF22F00802CD682A43DF
:1049400022F00402084DA84207D123F4807323F417
:1049500000734D692B438D692B43436084614D681F
:104960004563026230BD0000002C014030B5026A90
:10497000056A25F0100505624368846924F4E04463
:1049800024F440740D6844EA052422F020028D6866
:1049900042EA05120E4DA84207D100BF22F0800264
:1049A000CD6842EA051222F04002094DA84209D121
:1049B00023F4806323F400634D6943EA85038D6922
:1049C00043EA8503436084614D688563026230BDBC
:1049D000002C014030B5026A056A25F48075056235
:1049E0004368C46924F0700424F003040D682C4368
:1049F00022F400728D6842EA05220F4DA84207D1C9
:104A000000BF22F40062CD6842EA052222F48062EF
:104A1000094DA84209D123F4805323F400534D6972
:104A200043EA05138D6943EA05134360C4614D6889
:104A3000C563026230BD0000002C014030B5036A3E
:104A4000056A25F4805505624468C26922F4E04293
:104A500022F440720D6842EA052223F400538D6867
:104A600043EA0533064DA84204D124F480444D693D
:104A700044EA85144460C2614D680564036230BD38
:104A8000002C014000BF00BF02680C3252E8002F2A
:104A900022F4907102680C3242E80013002BF3D12B
:104AA00000BF00BF00BF0268143252E8002F22F09E
:104AB00001010268143242E80013002BF3D100BF59
:104AC000016B01290ED100BF00BF02680C3252E811
:104AD000002F22F0100102680C3242E80013002B74
:104AE000F3D100BF202180F84210002101637047FC
:104AF00070B504462168096921F44051E268114308
:104B0000226811612269A1681143626941EA0205C4
:104B10002168C96841F20C62914329432268D1603F
:104B20002168496921F44071A269114322685161E9
:104B30002D4A2168914202D1FDF7BEFF01E0FDF749
:104B4000ABFF00EBC00101EB001162689200B1FB0A
:104B5000F2F100EBC00202EB001263689B00B2FBB3
:104B6000F3F26423B2FBF3F202EBC20303EB021293
:104B7000A1EB8201322202EB01116422B1FBF2F1BE
:104B800001F0F00100EBC00202EB001263689B0031
:104B9000B2FBF3F26423B2FBF3F201EB021200EB7F
:104BA000C00101EB001163689B00B1FBF3F100EB66
:104BB000C00303EB00136668B600B3FBF6F364268C
:104BC000B3FBF6F303EBC30606EB0313A1EB830180
:104BD000322303EB01116423B1FBF3F101F00F0168
:104BE00011442268916070BD003801402DE9F843FE
:104BF00004460D4617469846089E31E0701C70B377
:104C0000FDF724F8A0EB0800B04200D816B9032045
:104C1000BDE8F8832068C06800F00400F8B1802D7A
:104C20001ED0402D1CD020680068C0F3C000B0B179
:104C300000BF002000902068006800902068406855
:104C4000009000BF00BF2046FFF71CFF08206064F3
:104C500000BF002084F8400000BF0120D8E7FFE734
:104C6000206800682840A84201D1012000E000200F
:104C7000B842C3D00020CBE700BFFEE710B5012249
:104C800011020248FCF7DCFF10BD000000080140E3
:104C900070B504460D46164600224FF48071114847
:104CA000FCF7CEFF032000F059F8C4F3074000F0F2
:104CB00055F8C4F3072000F051F8E0B200F04EF8C8
:104CC00004E0FF2000F04AF805F8010B301EA6F1C1
:104CD00001018EB2F5D1012211020248FCF7B0FFAA
:104CE00070BD00000008014070B500224FF48071D3
:104CF0000D48FCF7A5FF9F2000F030F8FF2000F0E2
:104D00002DF80446FF2000F029F80546FF2000F0AA
:104D100025F80646012211020348FCF791FF200402
:104D200040EA0520304370BD0008014010B5002264
:104D30004FF480710848FCF783FF052000F00EF85F
:104D4000FF2000F00BF80446012211020248FCF794
:104D500077FF204610BD00000008014001B582B079
:104D60004FF0FF30012301AA02A900900248FEF78C
:104D7000C1F99DF804000EBD6002002010B5044684
:104D800000F028F800224FF480710C48FCF758FF1F
:104D90002020FFF7E3FFC4F30740FFF7DFFFC4F372
:104DA0000720FFF7DBFFE0B2FFF7D8FF0122110277
:104DB0000248FCF745FF00F003F810BD0008014071
:104DC00010B500BFFFF7B2FF00F001000028F9D1D5
:104DD00010BD000010B500224FF480710548FCF7AB
:104DE0002FFF0620FFF7BAFF012211020148FCF74E
:104DF00027FF10BD000801400FB4054B10B503A9F3
:104E0000044A029800F00AF910BC5DF814FB000097
:104E10002D570008940000200FB4084B10B504A9CA
:104E200002AA039800F0FAF8044602A9002000F054
:104E300078FC204610BC5DF814FB000023570008E6
:104E400002480068C0F30220704700000CED00E04B
:104E500010B5002804DB0A07130E054A135406E0B8
:104E60000A07140E034A00F00F031B1FD45410BD91
:104E700000E400E018ED00E002E008C8121F08C1DD
:104E8000002AFAD170477047002001E001C1121FCB
:104E9000002AFBD1704700002DE9FF5F82B000219E
:104EA000DDE90430020DDDF840B0034318D044F6CC
:104EB0001050A2F2FF3242431514119801281FD05E
:104EC000A5EB0B00401C5FEA000A4FF000064E4FB6
:104ED000DFF83891B046504615D5CAF1000413E00A
:104EE000119801244AA3012801D16FEA0B0102980D
:104EF000119AC0E90031C0E9024206B0BDE8F09F56
:104F0000CBF10000DFE704460021404A491842EB9C
:104F10000450CDE9001012E0E00707D032463B46CE
:104F200040464946FBF76DFB8046894632463B4684
:104F300010461946FBF765FB06460F466410002C29
:104F4000EAD1DDE90401DDE90023BAF1000F06DA58
:104F5000FBF757FB42464B46FBF753FB05E0FBF7DD
:104F6000C2FB42464B46FBF7BEFB04460E46002200
:104F7000284BFBF73FFC03D84FF0FF30014607E01A
:104F80000022254B20463146FBF794FAFBF71AFC2A
:104F9000102409E0002C0ADB0A220023FBF722FA86
:104FA000039B30321A55641E50EA0102F2D1641C90
:104FB000039AC4F111031444119A012A03D0012267
:104FC00008430DD10AE0084304D000204FF0110B34
:104FD000119072E7A3EB0B056D1E0DE05B4504DD40
:104FE0004FF0000205F1010504E003DA4FF0000282
:104FF000A5F10105002AECD002981199C0E902310F
:10500000C0E9004579E70000000014400000F03FCF
:10501000300000000000F0430000E03F2DE9FF4FAA
:1050200095B09A46884606460025EEE1252877D1B8
:1050300000242746F94A0121039400E0044316F8AE
:10504000013F203B01FA03F01042F7D130782A28C3
:1050500011D06FF02F033078A0F13002092A16D852
:10506000039A44F0020402EB820203EB4202104472
:10507000761C0390EFE758F8042B0392002A03DA1A
:10508000504244F40054039044F00204761C3078FB
:105090002E2816D116F8010F44F004042A280DD04A
:1050A0006FF02F023078A0F13003092B09D807EBFD
:1050B000870302EB4303C718761CF3E758F8047B19
:1050C000761C30786C280FD006DC4C2817D0682866
:1050D0000DD06A2814D104E0742810D07A280FD19A
:1050E0000DE044F400140AE044F4801401E044F4B8
:1050F00040147278824202D104F58014761C761C2A
:10510000307866280BD013DC582877D009DC0028CB
:1051100075D04528F6D04628F4D047281AD193E117
:1051200018E0632835D0642879D0652812D18BE146
:10513000702873D008DC6728F1D069286FD06E28FA
:105140000DD06F2806D1ACE073282CD0752874D010
:10515000782853D05246179990476D1C54E1C4F3F8
:105160000250022809D003280DD0D8F800100428D6
:105170000DD00D6008F1040846E1D8F80010EA17D8
:10518000C1E90052F6E7D8F800100D80F2E70D7083
:10519000F0E718F8041B8DF8001000208DF80100CE
:1051A000EB46012003E058F804BB4FF0FF306107E5
:1051B0004FF0000102D40DE009F101018946B94226
:1051C0000FDA8145F8DB1BF809100029F4D108E05B
:1051D00009F1010189468142FADB1BF80910002917
:1051E000F6D103985346A0EB090721463846179A93
:1051F00000F080FA284400EB090507E044E008E1EC
:105200000DE01BF8010B524617999047B9F10109BF
:10521000F7D2534621463846179AF2E039E00A2180
:10522000C4F302524FF0000B0091022A06D058F846
:10523000040BC117032A09D00AE023E008F1070094
:1052400020F00702F2E80201904605E000B2C11723
:10525000042A01D140B2C117002906DA0A4600210A
:10526000404261EB02012D2202E0220504D52B22EF
:105270008DF80420012203E0E20701D02022F7E7A5
:10528000914657E00A2100E010214FF0000B0091F9
:105290000BE010214FF0000B44F0040408270091AC
:1052A00003E008204FF0000B0090C4F30252022AE2
:1052B00005D058F8040B0021032A08D008E008F1B3
:1052C000070020F00702F2E80201904603E080B2F6
:1052D000042A00D1C0B24FF0000922072AD5327843
:1052E000702A07D0DDF800C08CF0100C5CEA0B0CC3
:1052F00005D00EE040228DF80420012208E050EA9B
:10530000010306D030238DF804308DF805200222E9
:105310009146009B83F0080353EA0B030AD150EA3D
:10532000010201D1620705D530228DF804204FF02B
:1053300001097F1E3278582A04D039A20C920CAA97
:1053400002920BE03BA2F9E75B46009AFBF74AF8B2
:105350000C9B9B5C029A521E0292137050EA01024F
:10536000F2D1029804A9081A00F1200B600702D5B7
:1053700024F4803400E001275F4502DDA7EB0B0039
:1053800000E0002000EB0B01009003984944401A14
:105390000390E00306D453462146179A039800F081
:1053A000A9F90544002706E001A85246C05D1799F7
:1053B00090476D1C7F1C4F45F6DBE0030CD5534630
:1053C0002146179A039800F095F9054404E030202F
:1053D0005246179990476D1C0099481E009000296D
:1053E000F5DC08E00298029952460078491C0291C7
:1053F000179990476D1CBBF10001ABF1010BF1DC7B
:105400005BE100F065F90544761C307800287FF4F4
:105410000DAE19B02846BDE8F08F00000928010044
:10542000303132333435363738396162636465661A
:1054300000000000303132333435363738394142DC
:105440004344454600000000600700D4062708F1E9
:10545000070020F00700F0E80223804603F0004C2C
:105460005FEA0C0001D097A009E0200501D596A0C5
:1054700005E0E00701D095A001E0AFF24C001390E9
:10548000307823F0004365280CD006DC452809D08D
:1054900046281DD047287FD13BE0662818D06728D2
:1054A0007AD136E00021112F01DB112000E0781CB9
:1054B000CDE9000104A90CA8FFF7EEFCDDE90D0120
:1054C0000C9A4FF0000B07F10109109200914EE089
:1054D0004FF000400097CDE9011004A90CA8FFF798
:1054E000DBFCDDE90D020C9B0F994FF0000B9146A0
:1054F0001093009211B9791C00EB0109B7EB090078
:1055000003D4C0F1FF3B07F10109A9EB07000190AB
:1055100042E0012F00DA01270021112F01DD1120C7
:1055200000E03846CDE9000104A90CA8FFF7B4FC5F
:10553000DDE90D010C9A00914FF0000BB946109275
:1055400021070FD4009A4A4503DA914601E0A9F1F8
:105550000109B9F1010F05DD109AA9F10101515CB2
:105560003029F4D0B84202DA10F1040F03DA012135
:10557000CDE9011010E0002803DC8344A9EB000111
:1055800002E0411C494500DD8946A0EB0B00401CB0
:1055900001904FF000400290200705D40198484543
:1055A00002DB4FF0FF30019000208DF84B00029895
:1055B0000DF14B07B0F1004F25D002200C902B20AD
:1055C0000D90029800280CDA404202902D200D9098
:1055D00007E00A210298FAF7EFFE3031029007F84F
:1055E000011D0C99481E0C900029F2DC029800283D
:1055F000EFD1791E0D980870307800F0200040F04F
:10560000450007F8020D11A8C01BC01D0290139899
:10561000007800B1012000EB0901019801EBE07175
:10562000029801440398401A401E0390E00306D4F8
:1056300053462146179A039800F05CF805441398E6
:10564000007818B15246179990476D1CE00323D596
:1056500053462146179A039800F04CF805441BE086
:10566000BBF1000F07DB0098584504DD109817992F
:1056700010F80B0001E0179930205246904701982E
:105680000BF1010B401E05F10105019004D12E2004
:105690005246179990476D1CB9F10001A9F1010913
:1056A000DEDC05E017F8010B5246179990476D1C98
:1056B0000299481E02900029F4DC53462146179AAD
:1056C00003989EE62D0000002B0000002000000043
:1056D0002DE9F041044600251E461746880404D4EF
:1056E00005E039462020B0476D1C641EF9D52846D8
:1056F000BDE8F0812DE9F041044600251E469046A4
:10570000C80301D5302700E02027880404D505E030
:1057100041463846B0476D1C641EF9D52846BDE8A1
:10572000F0810A68531C0B601070704713B50C466B
:105730004FF0FF33012269460248FEF735F9009821
:105740001CBD00001802002096B0FCF7FDFEFFF71C
:105750003DF8FEF7F3FCFEF7D7FCFEF711FEFEF76F
:105760008DFCFEF7CFFDFEF791FDFEF74FFDFEF736
:105770006BFDFEF741FEFFF781FAFEF791FAFEF7A7
:105780001FFEFEF7ADFFFFF70DF8FBF741FA4B499F
:105790004B48FEF730FC4B494B48FEF72CFCFBF71F
:1057A000EFF94AA0FFF728FBFBF7CAF904462146A8
:1057B0004BA0FFF721FBFBF7BDF9044621464EA0A5
:1057C000FFF71AFBFFF790FA504908600846016896
:1057D0004FA0FFF711FBFBF7B9F9002001210346A9
:1057E0004A02CDE9001050A1504800F0EFFD00F052
:1057F00093FC62E0FEF778FF0446607F002859D0F2
:1058000061882F48FEF704FCA1882F48FEF700FCB2
:10581000A068FBF7D7F981464846FBF75DFAA06818
:10582000FAF7ADFD05462A460B4641A111A8FFF740
:10583000F3FAE068FAF7A3FD05462A460B4640A1B5
:105840000CA8FFF7E9FA2069FAF799FD05462A4600
:105850000B4640A107A8FFF7DFFA11AA002108466E
:10586000FEF754FE0CAA01210020FEF74FFE07AA06
:1058700002210020FEF74AFE207F88B1A069FAF7D6
:105880007EFD05460E466069FAF779FD07463A4601
:105890000B4634A102A8CDE90056FFF7BDFA03E09C
:1058A00035A102A8FFF7B8FA02AA03210020FEF7EB
:1058B0002DFE00BFFBF7D6F900BF9BE720BF02001B
:1058C00098000020C0D40100AC00002053746F7217
:1058D00061676520496E6974204F4B0D0A00000016
:1058E000577269746520416464723D3078253038A0
:1058F0006C580D0A000000005265636F726420430B
:105900006F756E743D256C750D0A00001000002047
:10591000573235513634204944203D2030782530E7
:10592000366C580D0A000000417070009D0D000893
:1059300050535F563A252E32665620202000000034
:105940004D513133355F563A252E32665620202090
:10595000000000004D51325F563A252E3266562027
:1059600020200000543A252E31664320483A252E47
:10597000316625250000000044485432303A204565
:10598000525200002DE9F04105460F4617480668BF
:1059900017480068001D00F095FA50B914480068D7
:1059A00090F82C1001208840124909688143114861
:1059B000016074190E4800684460B44207D20C4874
:1059C0000168091D0C48006800F0A3FA0CE00848C3
:1059D0000168091D0948006800F09BFA0848006842
:1059E000844201D206480460BDE8F08140000020F6
:1059F0003000002044000020380000203400002047
:105A00005C00002010B5044600F0AAFA24480068A3
:105A1000401C234908602348006840B921480460BD
:105A20000846006801280DD100F0FCF80AE01E4885
:105A3000006838B91B480068C06AE16A884201D82A
:105A40001848046019480068401C18490860084656
:105A50000068206494F82C100120884014490968DB
:105A6000084313490860E16A01EB8101114A02EB26
:105A70008100211D00F067FA00F09CFA0A480068D6
:105A800068B108480068C06AE16A884207D24FF0EE
:105A9000805009490860BFF34F8FBFF36F8F10BD6F
:105AA0003C0000203000002048000020580000206A
:105AB00044000020E402002004ED00E070470000F4
:105AC00030B54FF4C053174800F007042CB1C01D87
:105AD00020F00700134C041B1B1B0246124C2260D3
